:020000040801F1
:10010000482B0020F9030108090401080B04010829
:100110000D0401080F04010811040108000000008B
:1001200000000000000000000000000013040108AF
:100130001504010800000000C31A0208C9000308E2
:10014000A7530108C553010817040108ED5301081E
:100150001949080800000000454A08083D4A0808F7
:100160002F4A0808BD7F0108118001085780010847
:1001700087800108816C01088B6C0108956C01086F
:100180009F6C0108A96C0108170401083B51010884
:10019000B16D01083933010815540108C51B010868
:1001A0009D1C01080B570108D1250108DB2501081A
:1001B000E5250108EF250108F925010803260108B6
:1001C000AF8D01081704010817040108BD4001089C
:1001D0006F7701081940010819BD010827BD010802
:1001E000515701081D1E010800000000DFF80CD067
:1001F0008CF004FA00480047970E0108482B0020B5
:1002000070B50446032C0CD0042C0ED12FF0D9FF6E
:100210000546284631F0C0FD4E48006822F081FCBA
:1002200004E04DA08CF00CFC00BF00BF00BF70BD0F
:100230002DE9F84305460E4600240020009015B92C
:10024000401EBDE8F88329464DA08CF0F9FB3146ED
:100250004EA08CF0F5FB79F0E8F9012269460A20FE
:100260000AF08FF89DF80000012808D079F07FFA95
:1002700001200090002269460A2011F055F9002063
:1002800013F052FE182009F081FF044674B10022D9
:10029000214603200AF075F8012020700022214633
:1002A000032011F041F9204609F0A1FF3B4834F04A
:1002B00037FD30468BF011F9C7B228468BF00DF9A7
:1002C00000F0FF083B4632464146284679F096F852
:1002D00033A08CF0B5FB0020B3E770470EB54FF0AC
:1002E000FF311C48006822F083FBFFF7F6FF002077
:1002F00000900190029068466FF0A2FC46F069FD04
:100300006FF068FC0EBD10B586B000241821684659
:100310008BF0A4F80220ADF8040029A00490AFF2FD
:10032000430000904FF4205003906946284820F085
:1003300085FA044614B1204606B010BD2046FBE7FE
:1003400010B524A08CF07CFB28A129A0FFF770FF3A
:1003500010BD0000040000200D0A77696669206462
:100360006973636F6E6E65637465647E7E7E7E7E88
:100370007E7E7E7E7E7E7E7E7E7E7E7E0D0A00007E
:100380000A737369643A25730A000000706173731D
:10039000776F72643D25730A0000000001020108B6
:1003A0000A706C65617365207761697420636F6E94
:1003B0006E656374206E65742E2E2E2E2E2E0A000E
:1003C0006167656E7474696E795F7461736B000048
:1003D00000000020666972737420636F6E6E65633F
:1003E0007420746F20746865204150006D756D75C0
:1003F000646F726B65000000074880474FF0000093
:1004000080F3108805480047FEE7FEE7FEE7FEE7B9
:10041000FEE7FEE7FEE7FEE759140108ED010108DB
:10042000F948704710B504460321F84800F09EFBD8
:100430000A2C0DD100BFF548083000F099FB00F000
:100440003F000028F7D10D21F0480C3000F08EFB62
:1004500000BFEE48083000F08BFB00F03F000028A2
:10046000F7D1E1B2E9480C3000F080FB0021E74809
:1004700000F07CFB204610BD70B504460D462046BA
:10048000FFF7D0FF70BD01464FF0FF3070472DE9F8
:10049000F04304460D4617469846079E002000216B
:1004A000002D06DA6D424FF02D0984F80090641C8F
:1004B000401C45B94FF0300984F80090641C01F1EC
:1004C00001094FFA89F125E095FBF7F907FB195966
:1004D00009F0FF02092A12DDA2F10A0909F0FF0260
:1004E00006F00409B9F1000F04D002F1410984F8C3
:1004F000009008E002F1610984F8009003E002F145
:10050000300984F8009095FBF7F5641C01F10109AE
:100510004FFA89F1002DD7D106F00109B9F1000F8A
:100520001BD0A4460B46641EA1F101094FFA89F1C4
:100530000FE02278A4EB010999F8009084F800906C
:10054000A4EB010989F80020641EA1F102094FFA09
:1005500089F10029EDDC1946644611E006F0020934
:10056000B9F1000F04D04FF0300904F8019B03E00B
:100570004FF0200904F8019B01F101094FFA89F1BC
:100580008845EBDC08444FF0000904F80199A1F11B
:1005900001094FFA89F106F00109B9F1000F12D1F2
:1005A0000FE02278A4EB010999F8009084F80090FC
:1005B000A4EB010989F80020641EA1F102094FFA99
:1005C00089F10029EDDCBDE8F0832DE9F04F81468B
:1005D0000F460021B9F1040F5CD1002357E04FEA28
:1005E000C30A386820FA0AF000F0FF0C64209CFB74
:1005F000F0F0C4B254B104F1300000F0FF0B084633
:1006000001F1010A0AF0FF0102F800B064209CFB2E
:10061000F0FA00FB1AC04FF00A0A90FBFAF0C5B2DC
:100620005DB105F1300000F0FF0B084601F1010A51
:100630000AF0FF0102F800B007E034B14FF0300BD0
:100640008A46481CC1B202F80AB064209CFBF0FA4A
:1006500000FB1AC04FF00A0A90FBFAFB0AFB1B00D2
:10066000C6B206F1300000F0FF0B084601F1010AA6
:100670000AF0FF0102F800B04FF02E0B084601F11E
:10068000010A0AF0FF0102F800B0581CC3B2042BA3
:10069000A5DB56E04FF0000850E0002347E04FEAAA
:1006A000C30A386820FA0AF0C5B22C1105F00F060B
:1006B000092C09DD04F1370000F0FF0B8A46481CC5
:1006C000C1B202F80AB008E004F1300000F0FF0BFC
:1006D0008A46481CC1B202F80AB0092E0BDD06F1A9
:1006E000370000F0FF0B084601F1010A0AF0FF0194
:1006F00002F800B008E006F1300000F0FF0B8A4677
:10070000481CC1B202F80AB0184603EBD07A4FEA8F
:100710006A0AA3EB4A0ABAF1000F06D04FF03A0B6F
:100720008A46481CC1B202F80AB0581CC3B2042B56
:10073000B5DB3F1D08F1010000F0FF08B8F1040F20
:10074000ABDB4FF0000A481E02F800A0BDE8F08FB6
:1007500070B505460A46002128E0685C0309685C1C
:1007600000F00F04092B05DD03F1370001EB410612
:10077000905504E003F1300001EB41069055092C3F
:1007800007DD04F13700C6B201EB4100401C1654EE
:1007900006E004F13000C6B201EB4100401C1654E3
:1007A0002D2601EB4100801C1654491C0629D4D388
:1007B0000026481E00EB4000801C1654481E00EB2B
:1007C0004000801C70BD2DE9F34F8DB0824600259E
:1007D0005446A846AEE114F801BBBBF1250F03D087
:1007E0005846FFF71FFEA5E10025A84620782D28D2
:1007F00002D148F00108641C2078302802D148F06A
:100800000208641C0CE00000482B00201408014082
:10081000207805EB850100EB41003038C5B2641C3F
:100820002078302802DB20783928F1DD20782E2846
:1008300008D1641C00E0641C2078302802DB20789A
:100840003928F8DD00E0641C20786C28FBD0207883
:100850006828F8D0207864282BD010DC53287DD06D
:1008600006DC25286ED0432819D04D286BD123E112
:10087000562869D0582837D06328F7D10EE075285C
:1008800019D006DC692815D06F284AD07328EDD11D
:1008900063E0762872D07828E8D124E000BF0E9873
:1008A00010F8041B01F0FF0B0E905846FFF7BAFD3D
:1008B0003EE100BF00BF0E98006802900E98001D38
:1008C0000E9003AE2B460A22CDF8008003A80299B1
:1008D000FFF7DDFD03E016F8010BFFF7A3FD30780D
:1008E0000028F8D124E100BF0E98006802900E980D
:1008F000001D0E9003AE2078582801D148F004085E
:100900002B461022CDF8008003A80299FFF7BFFD07
:1009100003E016F8010BFFF785FD30780028F8D1C9
:1009200006E10E98006802900E98001D0E9003AE2E
:100930002B460822CDF8008003A80299FFF7A7FDF7
:1009400007E00BE0EFE0F2E07EE016F8010BFFF7C6
:1009500069FD30780028F8D1EAE000BF0E9850F821
:10096000049B0E9048468AF0B8FD0746BD4210D958
:1009700008F0010068B90020029006E02AE020207B
:10098000FFF750FD0298401C0290E81B0299884234
:10099000F5D80020029007E0029919F80100FFF74E
:1009A00041FD0298401C02900298B842F4D3BD4227
:1009B0000FD908F0010060B10020029005E020206E
:1009C000FFF730FD0298401C0290E81B0299884214
:1009D000F5D8ADE00E98006802900E98001D0E90BC
:1009E00003AA02A90420FFF7F0FD0746BD420FD974
:1009F00008F0010060B90020029005E02020FFF718
:100A000011FD0298401C0290E81B02998842F5D81B
:100A100003AE03E016F8010BFFF704FD3078002861
:100A2000F8D1BD420FD908F0010060B1002002905A
:100A300005E02020FFF7F6FC0298401C0290E81B1E
:100A400002998842F5D873E00E9850F8049B0E90F6
:100A500003AA49460620FFF7B8FD0746BD420FD955
:100A600008F0010060B90020029005E02020FFF7A7
:100A7000D9FC0298401C0290E81B02998842F5D8E4
:100A800003AE03E016F8010BFFF7CCFC307800282A
:100A9000F8D1BD420FD908F0010060B100200290EA
:100AA00005E02020FFF7BEFC0298401C0290E81BE6
:100AB00002998842F5D83BE00E9850F8049B0E90BE
:100AC00003A94846FFF744FE0746BD420FD908F088
:100AD000010060B90020029005E02020FFF7A2FC91
:100AE0000298401C0290E81B02998842F5D803AE98
:100AF00003E016F8010BFFF795FC30780028F8D1D9
:100B0000BD420FD908F0010060B10020029005E05D
:100B10002020FFF787FC0298401C0290E81B0299F6
:100B20008842F5D804E02520FFF77CFC00E000BFF8
:100B300000BF641C207800287FF44DAE0FB0BDE8E4
:100B4000F08F0FB408B503A8009000990298FFF742
:100B50003AFE0020009001B05DF814FB10B5044689
:100B60002046FFF75FFC10BD00BFFEE70160704745
:100B700001460868704700003A4901433A4A11604B
:100B8000704770B5002100230F22C47804B3364C9F
:100B9000246804F4E064C4F5E064210AC1F10403AC
:100BA000CA40447804FA03F18478144021430901CF
:100BB0002E4C0678A155047804F01F050124AC40A2
:100BC00005786D11AD0005F1E025C5F8004109E09B
:100BD000047804F01F050124AC40254D06787611F9
:100BE00045F8264070BD38B505460C46E8B28DF88C
:100BF000000001208DF8010000208DF802008DF822
:100C000003406846FFF7BDFF38BD1A4A0A40024359
:100C1000154B1B1F1A60704739B1134A121D126819
:100C20000243114B1B1D1A6006E00F4A121D126889
:100C300082430D4B1B1D1A607047042808D14FF0EA
:100C4000E021096941F004014FF0E022116107E061
:100C50004FF0E021096921F004014FF0E022116119
:100C6000704700000000FA050CED00E000E400E031
:100C700080E100E080FFFF1F3EB5684600F0D4FB36
:100C8000A64A01985043A64A1268B0FBF2F1481EEA
:100C9000B0F1807F00D31BE0481E4FF0E02250618E
:100CA00050170F22002804DB13071C0E9D4B1C5409
:100CB00006E013071D0E9C4B00F00F04241F1D556A
:100CC00000BF00204FF0E02290610720106100BFBC
:100CD0004FF44070FFF750FF3EBD10B508F06CF8C0
:100CE00030BF10BD704710B508F0D1FD042008F0EA
:100CF000A0F9052008F0BFF91B2008F04EFA1C20CF
:100D000008F037FA022008F0DEF80B2008F0B9F8F6
:100D1000032008F003F9092008F02BF910BD05E0C5
:100D200082A08BF08DFE0A2020F08DFDF8E705E013
:100D300080A08BF085FE142020F085FDF8E705E00B
:100D40007EA08BF07DFE1E2020F07DFDF8E710B523
:100D500086B0182168468AF081FBAFF23D00009012
:100D60004FF4C060039077A004900220ADF8040017
:100D7000694676481FF062FD04460CB106B010BD0E
:100D8000182168468AF06AFBAFF25D0000904FF4CC
:100D9000C06003906EA004900220ADF80400694684
:100DA0006D481FF04BFD044604B1E7E71821684683
:100DB0008AF054FBAFF2790000904FF4C0600390CA
:100DC00066A004900220ADF80400694665481FF053
:100DD00035FD044604B1D1E700BFCFE70EB562A1EF
:100DE00003C9CDE9010100200090FFF77CFF0BF063
:100DF000D9FD02F059FD07F089FE07F065FD09F005
:100E00000EFE05F032FC10F03FF910F03CFA5848A5
:100E100005F03EFE07221146564874F0ABF901A8D2
:100E200005F0AAFD002201A9104673F0EDFE0FF0B7
:100E3000C9FE0446214650A08BF002FE01A873F0C3
:100E4000F5FB33F0B9FE00F0B0FA1AF0D1FA1CF05D
:100E5000F4FF1DF030FE3FF033F801226946162002
:100E600009F08FFA9DF80000012806D001200090BB
:100E700001226946162010F057FBFFF761FA00F0D7
:100E800028FA01210420FFF7C7FE00BF4FF0805071
:100E90001EF0CFF8FAE71FB50024FFF723FF00206C
:100EA00005F03BFF002007F02EF900201EF0CBF8E4
:100EB000012137481DF0A5FF3649002021F04EFDE5
:100EC000002001214FF49652334BCDE90032CDE999
:100ED00002100346AFF2FB0230A11DF0FDFEFFF74A
:100EE00012FA0446FFF7C8FE1EF0B2F8002004B064
:100EF00010BD704770B505460E462B480068401C73
:100F0000294908601FF0CEFA044628480068028884
:100F1000214627A08BF094FD70BD000040420F00D9
:100F200064E0090800E400E018ED00E03174657346
:100F3000740A000032746573740A000033746573B8
:100F400074330A00546573743100000014000020EB
:100F500054657374320000001800002054657374E7
:100F6000330000001C00002000250809010F0000CC
:100F70008807012000C003206D656D2061766169DE
:100F80006C2073697A653A307825780D0A00000084
:100F90001000002004000020C82C0020557365724A
:100FA0005F54736B00000000240000202C00002020
:100FB0007469636B5F6C617374313D2564202E200E
:100FC00074696D3A25640D0A0000000000B58BB00D
:100FD00000226946032009F0D4F99DF8000068B1A9
:100FE00000200A900990089008AA09A90AA833F0DD
:100FF00046FE33F058FE33F00CFE1AE033F012FEDA
:1010000033F051FE01980A900298099003980890D5
:1010100008AA09A90AA833F032FE04980790059897
:10102000069007A9002033F036FE06A9012033F010
:1010300032FE0BB000BD00B591B000208DF800006D
:1010400000226946142009F09CF9002208A93020EA
:1010500009F097F933F0D3FE099810900A980F9091
:101060000B980E900EAA0FA910A833F0DFFE9DF882
:10107000200008B133F0A5FE9DF8000010B16846CD
:1010800033F0AAFE11B000BD10B533F0AEFE33F060
:101090009FFE33F0C2FE10BD30B5A1B0662009F04E
:1010A00075F804460CB921B030BD282009F06EF85F
:1010B00005461DB9204609F09AF8F4E7012218A95F
:1010C0002C2009F05EF918A92046209A8AF09EF992
:1010D000002020996054012204F121012E2009F002
:1010E00050F9012204F12201312009F04AF90122CC
:1010F00001A92F2009F045F99DF84410252001553C
:101100009DF8460084F823009DF8451024200155E1
:101110009DF8442001A904F126008AF077F9012204
:1011200012A9302009F02DF91398286014986860EE
:10113000002205F10801142009F023F92946204670
:1011400078F09CFA204609F052F8284609F04FF84A
:1011500000BFA8E700B59FB0FF20159000201490B5
:1011600015A978F045FA9DF8540008B91FB000BDE4
:101170009DF85400032805D10120159015A978F099
:1011800037FAF3E7012214A90A2009F0FAF89DF8CA
:101190005000012804D0042829D005282AD100E0D5
:1011A00000BF012201A9062009F0EBF8012216A9CF
:1011B000002009F0E6F8012203A9262009F0E1F851
:1011C0009DF8040050B11398C0B200901E98C1B2AF
:1011D00003AB9A1F16A878F083F907E01398C3B2FF
:1011E0001E98C1B203AA16A878F008F903E0FFF729
:1011F00053FF00E000BF00BF00BFB7E700B587B0F6
:10120000002201A9032009F0BCF89DF8040008B1F0
:1012100033F008FD002033F0F8FC33F050FDFFF709
:1012200099FF07B000BD1CB50020009000BF00234F
:101230001A4601A96C4800681DF065FE0446002CA2
:10124000F5D101980068082829D2DFE800F02804C9
:10125000121518070A0DFFF7B9FE21E0FFF7EBFEA4
:101260001EE0FFF711FF1BE0FFF70EFFFFF772FF15
:1012700016E0FFF7C3FF13E0FFF7C0FF10E0694679
:10128000002078F0B5F99DF80000032804D1012072
:101290000090694678F0ACF9FFF75CFF00E000BF12
:1012A00000BF019808F0A3FFC1E770B505460E46E0
:1012B000082008F06BFF044654B1002020606060F5
:1012C0002560666000222146474800681DF005FE43
:1012D00070BD10B500210420FFF7E7FF10BD10B569
:1012E00000210120FFF7E1FF10BD10B5002105200E
:1012F000FFF7DBFF10BD10B500210620FFF7D5FF7B
:1013000010BD10B500210720FFF7CFFF10BD10B5AD
:1013100000210220FFF7C9FF10BD10B500210320F6
:10132000FFF7C3FF10BD1CB50446002001900090DC
:10133000092C37D2DFE804F03605080B0E2C2F32CB
:101340003500FFF7CCFF2EE0FFF7E7FF2BE0FFF7BC
:10135000DEFF28E0012033F058FC01226946162008
:1013600009F00FF800219DF8000078F07BFA0122C7
:1013700001A90A2009F005F89DF8040000F0040016
:1013800028B178F0FAF9032801D0FFF785FE0AE0CA
:10139000FFF7ABFF07E0FFF7B4FF04E0FFF7ABFF99
:1013A00001E000E000BF00BF1CBD1FB514210E48C6
:1013B0001DF06EFD04461CB14FF0FF3004B010BDAF
:1013C000002011214FF48062084BCDE90032CDE9B5
:1013D00002100346AFF2B11205A11DF07DFC0748D3
:1013E00033F09EFC0020E9E730000020883F002019
:1013F000537973205461736B0000000027130108B8
:101400000246506803680B604860036859600160D9
:1014100000BF7047D0E900215160D0E9001211608F
:10142000002101604160704770B50446F84808F03B
:101430003AFA0546C5F303102821B1FBF0F020600D
:1014400005F00F00A021B1FBF0F06060C5F30310C0
:10145000B1FBF0F0A06070BD3EB56846FFF7E4FF59
:10146000EC49009800FB01F44FF4E110B4FBF0F0FC
:10147000401E4FF4E111B4FBF1F201FB12410901EE
:101480004FF4E112B1FBF2F140EA01452946E2488E
:1014900008F007FA4321E048103808F002FA00216A
:1014A000DD480C3808F0FDF90021DB48083808F069
:1014B000F8F90021D848001F08F0F3F9FF21D648B9
:1014C000001D08F0EEF93EBDFEB504466846FFF784
:1014D000ABFFD049009800FB01F674BB4FF4E1105C
:1014E000B6FBF0F0401E4FF4E111B6FBF1F201FB48
:1014F000126109014FF4E112B1FBF2F140EA01453A
:101500002946C54808F0CDF94321C348103808F0F2
:10151000C8F90021C0480C3808F0C3F90021BE48C2
:10152000083808F0BEF90021BB48001F08F0B9F9DF
:10153000FF21B948001D08F0B4F9012C0ED1242177
:10154000B64808F0AEF94421B448001F08F0A9F9E4
:101550006FF00C01B148083008F0A3F9022C0ED14D
:101560002421AF4808F09DF94421AD48001F08F040
:1015700098F96FF00C01AA48083008F092F9FEBD06
:101580000246002107E0A74850F82100904201D10F
:1015900001207047491C1129F5D34FF0FF30F8E7BF
:1015A000014619B1486A08B1086970470020FCE794
:1015B0002DE9FE4305460C462046FFF7E1FF804635
:1015C000B8F1000F03DA4FF0FF30BDE8FE83684644
:1015D000FFF72AFF8F49009800FB01F62001B6FBB8
:1015E000F0F0401E2101B6FBF1F201FB126109018E
:1015F0002201B1FBF2F140EA0147686A07612C6100
:101600000020E2E7024612B94FF0FF3070475175F3
:1016100031B9506A006820F00800536A186020E071
:1016200002290CD1506A006820F01800536A186033
:10163000506A006840F00800536A186011E0012900
:101640000CD1506A006820F01800536A1860506A84
:10165000006840F01800536A186002E04FF0FF3055
:10166000D4E70020D2E70146487D7047024612B910
:101670004FF0FF3070471175506A006820F003008A
:10168000536A186021B9506A0068536A18601DE0F7
:10169000012906D1506A006840F00100536A1860C1
:1016A00014E0022906D1506A006840F00200536A33
:1016B00018600BE0032906D1506A006840F003006F
:1016C000536A186002E04FF0FF30D3E70020D1E703
:1016D0000146087D7047024612B94FF0FF3070474F
:1016E000D175012906D1506A006840F00400536AA0
:1016F000186005E0506A006820F00400536A186022
:101700000020ECE70146C87D704710B50246002373
:101710000AB9012010BD11B101290BD103E000204D
:10172000546A606008E0907D012802D11920546A53
:10173000606001E00120EDE700BF1846EAE72DE90F
:10174000F041044604F1600600254027A8463046D3
:1017500008F0CBF830B1606F10B1606F1DF089FBFD
:10176000BDE8F08139E0304608F0BFF808B100204C
:1017700000E03068054614E0606AC06900F03F0090
:10178000216A884202D14FF0010812E0E989A86875
:10179000405C616A0862E889401CE881E06B401C9B
:1017A000E063381EA7F1010703DDE889A9898842B3
:1017B000E2DB00BFE889A98988420EDB2846FFF7F3
:1017C00029FE294604F16800FFF71AFED4F88400C8
:1017D00018B12046D4F884108847304608F085F8C0
:1017E00010B9B8F1000FBED000BFB9E7426A116866
:1017F00041F04001426A1160704770B505460E46DF
:101800000DB9094C13E0012D10D1074C8C340EE0BA
:101810001007004040420F00100801400C0A014030
:101820000C1C01401CD4090888430020F94CA66117
:1018300031462046FFF769FFA07D01280CD15EB933
:1018400094F8700040B12046FFF7D0FF2046FFF724
:1018500076FF002084F8700070BD426A116821F0A4
:101860008001426A11607047416A096841F0800155
:10187000426A11607047426A116821F04001426A71
:101880001160704770B504460D4604B115B94FF0AC
:10189000FF3070BD20462968FFF78AFE697920462F
:1018A000FFF7B0FE29792046FFF7E0FEE9792046F0
:1018B000FFF711FFA979A175A9792046FFF725FF48
:1018C0004FF0FF30616A88610020616A486124201E
:1018D000616A88603F20616AC860606A006820F0C1
:1018E000C000616A0860606A006840F0C000616A18
:1018F00008600020CDE770B504460D46A0690128B8
:101900001AD1A07D012817D12068012814D194F89C
:10191000700050B185B1002084F870002046FFF7B8
:1019200065FF2046FFF70BFF06E02DB9012084F884
:1019300070002046FFF79FFF70BD02460A2909D1BB
:1019400000BF506AC06900F03F000028F9D10D20A7
:10195000536A186200BF506AC06900F03F00002857
:10196000F9D1C8B2536A186208467047014602E0CE
:10197000486A006B7047486AC069C0F3831000284A
:10198000F6D100BFF6E710B5044614B1204608F0C2
:101990002EFC10BD2DE9F0410446002500261DF067
:1019A000D0FA0746206E054604E0A889304486B286
:1019B0002868054604F160008542F6D138461DF0DE
:1019C000C4FAC6F58050BDE8F0812DE9F04706461F
:1019D0000F4615464FF00008182008F0D7FB0446C4
:1019E0001CB94FF0FF30BDE8F087204607F07AFFC2
:1019F000284608F0CBFBA060A06828B9204608F074
:101A0000F6FB4FF0FF30EEE72A463946A06889F032
:101A1000FDFCA5810020E0817F482061A068606115
:101A20001DF08FFA8146214606F16000FFF7E8FCC1
:101A300048461DF08AFA4046D5E770B505460024B1
:101A40001DF07FFA06461DE005F1680007F04DFF26
:101A500008B1002000E0A86E04462046FFF7DAFC3B
:101A600030461DF072FAA06848B10020A0602069DD
:101A700010B1D4E904108847204608F0B8FB1DF0E7
:101A800060FA064605F1680007F02FFF0028DBD05A
:101A900030461DF05AFA002070BD2DE9F041044691
:101AA00004F16006002520271DF04BFA80463046E1
:101AB00007F01BFF00283FD1304607F016FF08B1A2
:101AC000002000E03068054612E0606AC06900F05E
:101AD0003F00216A884200D112E0E989A868405C91
:101AE000616A0862E889401CE881E06B401CE063A1
:101AF000381EA7F1010703DDE889A9898842E4DBE4
:101B000000BFE889A989884212DB2846FFF782FCDA
:101B1000294604F16800FFF773FC40461DF015FAF2
:101B2000D4F8840080B12046D4F8841088470BE0B4
:101B300040461DF00AFA07E040461DF006FA606FC5
:101B400010B1606F1DF095F9BDE8F0812DE9F0410D
:101B500006460D46012E33D12E4C8C3C207F00B919
:101B600025B1207F012803D1012D01D1BDE8F081ED
:101B7000A5B9A07D012823D1A069012820D11DF09D
:101B8000E0F90746606A406940F48270616A486122
:101B90000020207738461DF0D8F911E01DF0D1F96A
:101BA00007461E48D0F8B000406920F482711B48F7
:101BB000D0F8B00041610120207738461DF0C5F90A
:101BC00000BFD3E72DE9F047144C04F154054FF062
:101BD000000A606A8669606A866106F4F670002809
:101BE00049D0606A406900F00400002843D1606A6F
:101BF000C069C0F3851731E0606A006B00F0FF092F
:101C000006F0E00060B1606A806940F0E000616A5F
:101C1000886123E0A0440020871901088843002040
:101C20002989A888401C081AC0F30B00022809D88B
:101C3000A069012805D100212068FFF787FF002750
:101C400000E00FE0D5E9000100F80190A888401CF1
:101C5000C0F30B0068600AF1010A00BF381EA7F14B
:101C60000107C9D100BFD4F8800020B11FFA8AF063
:101C7000D4F88010884706F0030010B12046FFF723
:101C80005EFD06F0100038B1606AD0F81C8008F4E0
:101C900080512046FFF72FFEBDE8F0872DE9F84F71
:101CA000F74C04F154054FF00009CA46002000909B
:101CB000606A8669606A866106F4807010B3606A43
:101CC000806940F48070616A886194F88800C8B1C6
:101CD000616A01F1080007F0E6FD20F0010B616A7E
:101CE00001F10800594607F0DCFD616A01F10800C6
:101CF00007F0D9FD40F0010B616A01F10800594677
:101D000007F0CFFD06F4F670002874D0606A4069D1
:101D100000F0040000286ED1606AC069C0F3851726
:101D2000BA460020A06000972989A888401C081A9C
:101D3000C0F30B00802804D828898030C0F30B0042
:101D4000A86017E0606A006B00F0FF0906F0E00091
:101D500030B1606A806940F0E000616A886109E042
:101D6000D5E9000100F80190A888401CC0F30B00E1
:101D7000686000BF381EA7F10107E3D1BAF1030F75
:101D800031D1B9F12B0F2ED16868401E10B1012856
:101D900019D10CE0286890F8FF0F2B2806D128688D
:101DA00090F8FE0F2B2801D10320A0601AE02868CC
:101DB00000782B2806D1286890F8FF0F2B2801D136
:101DC0000320A0600EE0D5E90010801E085C2B28DF
:101DD00007D1D5E90010C01E085C2B2801D10320D3
:101DE000A06000BF00BFD4F8800020B1009A90B27C
:101DF000D4F88010884706F0030010B12046FFF7A2
:101E00009EFC06F0100038B1606AD0F81C8008F41F
:101E100080512046FFF76FFDBDE8F88F2DE9F05F98
:101E2000974C8C3404F154050027606A8669606A17
:101E3000866106F4807010B3606A806940F4807037
:101E4000616A886194F88800C8B1616A01F108008C
:101E500007F029FD20F0010B616A01F108005946E5
:101E600007F01FFD616A01F1080007F01CFD40F05A
:101E7000010B616A01F10800594607F012FD06F4F2
:101E8000F670002844D0606A406900F00400002821
:101E90003ED1606AC069C0F385182BE0606A006BB0
:101EA00000F0FF0A06F0E00030B1606A806940F09F
:101EB000E000616A88611DE02989A888401C081A31
:101EC000C0F30B0002280AD8A069012806D100211E
:101ED0002068FFF73BFE4FF0000800E00FE0D5E977
:101EE000000100F801A0A888401CC0F30B00686046
:101EF0007F1C00BFB8F10000A8F10108CED100BFDF
:101F0000D4F8800020B11FB1B8B2D4F8801088474F
:101F100006F0030010B12046FFF711FC06F0100098
:101F200038B1606AD0F81C9009F480512046FFF760
:101F3000E2FCBDE8F09F10B5044660B2002807DB64
:101F400000F01F02012191404E4A430942F823103C
:101F500000BF01212046FEF746FE10BD20B9484AC9
:101F60008C3AC2F884100CE0012804D1444A8C3A1F
:101F7000C2F8101105E0022803D1414A8C3AC2F898
:101F80009C11704710B5044600212046FEF72BFE39
:101F900010BD2DE9FC470546884691462846FFF7C7
:101FA00093FA4DB98C2136488C3889F057FA344C65
:101FB0008C3C3548606229E0012D07D18C213048E6
:101FC00089F04CFA2E4C314860621FE0022D19D185
:101FD0008C212B488C3089F041FA294C8C342C48C8
:101FE0006062B9F1010F06D1606A006840F080704C
:101FF000616A08600AE0606A006820F08070616AC7
:10200000086003E04FF0FF30BDE8FC872560B8F1C1
:10201000000F12D14FF4E130009003208DF804003E
:1020200000208DF806008DF805008DF80700694640
:102030002046FFF727FC064604E041462046FFF70E
:1020400021FC064616B14FF0FF30DDE70120207776
:102050000DB9172004E0012D01D1182000E029203E
:1020600060602079FFF78EFF606DC8B94FF4805033
:1020700008F08CF807466FB94FF0FF30C4E7000056
:102080001444002080E200E000080140000A014002
:10209000001C01404FF48051384689F0DFF9676534
:1020A0000021A165E1651020206204F1600007F0C5
:1020B00019FC04F1680007F015FCAFF281612846B5
:1020C000FFF74CFF2079FFF736FF00209CE718B997
:1020D000F84AC2F880100AE0012803D1F54AC2F894
:1020E0000C1104E0022802D1F24AC2F8981170479C
:1020F0002DE9F05F06460F4690464FF0000B17B1F2
:10210000B8F1010F03DA4FF0FF30BDE8F09F16B9C8
:10211000DFF8A0B30AE0012E04D1DFF898B30BF189
:102120008C0B03E0022E01D1DFF88CB30BF15404C9
:10213000A0882189401AC0F30B0AC24501DB45463D
:1021400001E00020E1E7A0682844B0F5805F11D9E4
:10215000A068C0F58059A268206881184A463846B0
:1021600089F054F9A5EB090207EB0900216889F011
:102170004DF906E0A268206881182A46384689F0A1
:1021800045F920892844C0F30B00A0602846BCE72D
:1021900030B50346072B02DD09B9012030BDC74C1D
:1021A000302505FB034488682060C44C05FB0344CC
:1021B000C86860600AB1012000E000204C68C4F3E8
:1021C000160440EA4400BD4C302505FB0344E061A1
:1021D000BA48302404FB0300406940F00100B74CCA
:1021E00005FB034460610020D8E72DE9F041044677
:1021F0000E4617461D46B148103807F054FB80467E
:1022000061000320884040EA0808600005FA00F0F9
:1022100028EA00084146A948103807F042FB04EBC1
:102220008400A74901F8205005F0010048B104EBF3
:10223000840001EB8000466004EB840001EB800029
:10224000876005F0020050B104EB84009C4901EB6B
:102250008000C66004EB840001EB80000761032C62
:1022600000DD042404F10D01C8B2FFF764FEBDE8EF
:10227000F0812DE9F04104460E46002700259CB967
:1022800000BF07E08F48405D00F0800008B9EFB262
:1022900002E06D1C082DF5DB00BF082D13D18AA0CC
:1022A0008AF0CEFB00270EE0002C0CDD082C0ADAA9
:1022B0008448005D00F0800008B9274603E082A052
:1022C0008AF0BEFB002746F080007E49C8557B4857
:1022D000302101FB070086613846BDE8F0812DE919
:1022E000F04786B007460D4690461E464FF000095F
:1022F000C6EBC60000EB80006E4901EB800427B1FD
:10230000012D02DBB5F5805F04DB4FF0FF3006B036
:10231000BDE8F08794F8880010B14FF0FF30F6E781
:1023200031466648083807F0BCFA05210220FFF75D
:10233000A0FF8146B9F1020F02D04FF0FF30E6E76F
:10234000616A01F1080007F0AEFA20F0010A616A43
:1023500001F10800514607F0A4FA02233246414633
:102360004846FFF742FF0397606A2030049001203F
:1023700040EAC51002904FF0004001900020059007
:10238000002201A94846FFF703FF012084F88800D6
:10239000616A01F1080007F086FA40F0010A616AFB
:1023A00001F10800514607F07CFA4448103807F064
:1023B0007AFA20F0200A51464048103807F071FAA6
:1023C0000F20FFF7B8FD0020A1E72DE9F0410446FA
:1023D0000E4617464FF000080EB1012F03DA4FF0FA
:1023E000FF30BDE8F081012C04D1DFF8C88008F18E
:1023F0008C0807E014B9DFF8BC8003E0022C01D19F
:10240000DFF8B4803A4631464046FFF7DEFA05462B
:1024100015B94046FFF741FB2846E2E70146C1EB0C
:10242000C10000EB8000234B03EB8002D06B7047B0
:102430002DE9F04704460F4690460025A946012C99
:1024400002D11C4D8C3505E00CB91A4D02E0022C6E
:1024500000D1194D002105F174001CF0D2FC064694
:102460001EB14FF0FF30BDE8F087424639462046A6
:10247000FFF7ABFF8146B9F1000F03D10021686F70
:102480001CF0DEFC686F1CF0CCFC0020686700BF0D
:10249000E9E730B504460D46012C05D1294605482B
:1024A0008C30FFF7AFF830BD14BB29460148FFF769
:1024B000A9F8F8E788430020A04400201004004059
:1024C000244A00205B000020212121746865726588
:1024D000206973206E6F206672656520444D41202F
:1024E0006368616E6E656C2E2121210A0000000078
:1024F000022C04D12946FA48FFF784F8D3E74FF0BD
:10250000FF30D0E770B504460D46012C05D12946B1
:10251000F3488C38FFF74CF870BD24B92946F148D0
:10252000FFF746F8F8E7022C04D12946EC48FFF7FC
:102530003FF8F1E74FF0FF30EEE730B504460D46C7
:10254000012C05D12946E6488C38FFF7C4F830BD88
:1025500024B92946E348FFF7BEF8F8E7022C04D176
:102560002946DF48FFF7B7F8F1E74FF0FF30EEE715
:1025700001460020C1EBC10202EB8202D94B03EB02
:10258000820282F88800704770B50446D64807F08A
:102590008AF904EB8401091D01228A4040EA020500
:1025A0002946D14807F07DF970BD70B50546ECB2FB
:1025B0002046FFF7E9FFCD4850F8340038B1CB4A48
:1025C00002EBC4025068C94A52F83410884770BD03
:1025D00010B50020FFF7E9FF10BD10B50120FFF78F
:1025E000E4FF10BD10B50220FFF7DFFF10BD10B5EE
:1025F0000320FFF7DAFF10BD10B50420FFF7D5FF69
:1026000010BD10B50520FFF7D0FF10BDFEB5054683
:10261000012408E00120A040B5490978084000B92C
:1026200003E0601CC4B2062CF4DB00BF062C01D111
:10263000FF20FEBD0120A040AD4909780843AC4908
:102640000870AA49E86841F8340001EBC401286920
:1026500048606846FEF7E8FE0098411EA248001F49
:1026600007F01FF9A04807F01EF90646287A38B986
:1026700004EB8400401C012101FA00F0064305E050
:1026800004EB8400401C012181408E4328780128FE
:1026900006D104EB8400012101FA00F0064304E0B6
:1026A00004EB8400012181408E4304EB8400001D73
:1026B000012202FA00F040EA06018B4807F0F1F827
:1026C000686838B1884A121D042303FB0420696836
:1026D00007F0E7F804F11A01C8B2FFF72CFC204616
:1026E000A7E770B504460120A04081490978084059
:1026F00000B970BD7C4807F0D6F804EB8401C91C12
:1027000001228A40104304EB8401891C01228A4083
:1027100040EA02052946744807F0C3F800BFE8E71D
:1027200070B504460120A04071490978084000B9FD
:1027300070BD6D4807F0B7F804EB8401091D012254
:102740008A4040EA02052946674807F0AAF8664829
:1027500007F0A9F804EB8401891C01228A4020EAD1
:1027600002052946604807F09CF800BFE0E770B515
:1027700004460D460120A0405D490978084000B993
:1027800070BD2046FFF7CCFF3DB15749091D04221B
:1027900002FB0410294607F084F82046FFF7A1FF4A
:1027A00000BFEDE710B504460120A040504909786C
:1027B000084000B910BD2046FFF7B2FF00204B498A
:1027C00041F8340001EBC40148600120A0404849B1
:1027D000097881434648017000BFEBE7FEB5054626
:1027E0000E46002700240DB93846FEBD1A20FFF71B
:1027F000C9FB29463C48001D07F053F86846FEF720
:1028000013FE0098411E3848001F07F04AF836486A
:1028100007F049F80446012E02D144F0010402E019
:102820000EB924F0010444F0020444F0100444F012
:10283000080444F0040421462B4807F032F800BF96
:10284000294807F030F800F010000028F8D044F0D4
:1028500010042146244807F024F81A20FFF76BFBE8
:102860003846C2E770B50546224807F01CF8044612
:1028700035B1012D08D0022D0BD0032D13D10DE061
:1028800024F0030400BF0FE024F0030444F002042A
:102890000AE024F0030444F0010405E024F00304FA
:1028A00044F0030400E000BF00BF2146114806F0D9
:1028B000F8FF70BD70B505460E4806F0F4FF0446FB
:1028C00015B924F0080405E0012D03D124F0080413
:1028D00044F008042146074806F0E3FF70BD0000FD
:1028E000A044002088430020040E01402C45002015
:1028F0003C0000200404014070B50546F84806F08D
:10290000D2FF044615B924F0040405E0012D03D1DB
:1029100024F0040444F004042146F14806F0C1FF09
:1029200070BD3EB505466846FEF77EFDEC480830B2
:1029300006F0B9FF04466FF30F04EA4900984843D4
:102940006900B0FBF1F0401E04432146E448083022
:1029500006F0A7FF3EBD2DE9F04104460D461646A0
:10296000DF48183006F09FFF074614B1C7F3003068
:10297000207015B1C7F38510287026B107F03F000D
:10298000C0F120003070BDE8F0814FF6FF70D649ED
:102990000860091D08607047FEB504460E461546DE
:1029A0004FF48000CE49086000BFCD48006800F4B5
:1029B00080000028F9D16846FEF736FDC949009825
:1029C00048436900B0FBF1F0401EC549083108607A
:1029D0000020091F086044F004000860FF20C0497F
:1029E00010310860FFF7D1FFFEBD002200BF521C6E
:1029F000B2F5A00F02D36FF002007047B84818304C
:102A0000016801F480500028F1D100BFF5E70146CC
:102A1000072901DD01207047B3481030302202FB46
:102A20000100406900F00100B8B1AF48103002FB6E
:102A30000100406940F00200AB4A1032302303FB32
:102A40000122506100BFA8481030302202FB010073
:102A5000406900F001000028F5D10020DBE710B547
:102A60000446082C25DA2046FFF7D1FF00209E49B6
:102A70001031302202FB041108609B49103102FB27
:102A8000041148609849103102FB0411886196498D
:102A9000103102FB0411C8619348001D00686200F8
:102AA0000321914008439049091D086000208F4987
:102AB000085510BD70B50446002509E001201CF042
:102AC000B8FA6D1CB5F5FA7F02D94FF0FF3070BD32
:102AD00085481030302101FB0400406900F00100FE
:102AE0000028EBD100BFF2E72DE9F04F8BB0814613
:102AF0000D4692469B4600200A9080460390029025
:102B0000B9F1000F03D1401E0BB0BDE8F08FFFF705
:102B10006CFF10B16FF00200F6E74FF480007049CF
:102B2000086000BF6E48006800F480000028F9D1FA
:102B3000BAF1000F03D06A482030C0F800B005F0A9
:102B4000030010B125F0030600E02E463746002EA4
:102B500060D040F6FC70B6FBF0F004901521012027
:102B6000FFF787FB0A9000244DE0C4EB842009EBBB
:102B7000800007905A482030089040F6FC7086424A
:102B800000D900E030468046B8F1000F00D13DE0AA
:102B9000212040EAC81006904FF000400590002028
:102BA0000990002205A90A98FFF7F2FA01204C4982
:102BB0000C3108604E484A491C310860BAF1000FD8
:102BC0000AD04CB908F104004A4941EA801044494E
:102BD00008600120029004E0464941EA881040491B
:102BE0000860FFF702FF18B16FF0020003900DE0DC
:102BF0000A98FFF75FFF18B16FF00200039005E03D
:102C0000A6EB0806641C04988442AED900BF0A985B
:102C1000FFF725FFBD422FD900230020019000249B
:102C200006E0381919F80000E10088400343641CED
:102C3000E81BA042F5D82A4820300360002028492C
:102C40000C3108602A4826491C310860BAF1000F8F
:102C500003D0029808B90420019001982844C01BB1
:102C6000244941EA80101E490860FFF7BEFE10B1FA
:102C70006FF00200039000BF002019490860184956
:102C80000C31086016491C31086003983CE72DE9B7
:102C9000FF4F89B082460E461D46002008908346AD
:102CA00081460190BAF1000F03D1401E0DB0BDE87E
:102CB000F08FFFF79AFE10B16FF00200F6E74FF4C5
:102CC00080000749086000BF0548006800F48000E4
:102CD0000028F9D106F0030070B126F003070CE0DC
:102CE0000004014040420F00000400405B0000204F
:102CF000FD6D1680030028003746B84640F6FC708C
:102D0000B7FBF0F0C0B20290002D19DD202D17DCCA
:102D1000002410E03CB104F0030020B9F848C0F8EA
:102D200000B04FF0000B0B98005DA107C90E884062
:102D300040EA0B0B641CAC42ECD3F148C0F800B085
:102D400011210120FFF795FA0890ED481030059009
:102D500000246BE0B8F1000F22D0C4EB84200AEB12
:102D60008000069040F6FC70874200D900E03846AB
:102D70008146B9F1000F00D15BE0242040EAC91080
:102D800004904FF00040039000200790002203A918
:102D90000898FFF7FDF90220D9491439086003E0CB
:102DA0000020D74914390860D648D549091F086062
:102DB000029848B97019D44941EA801040EA856008
:102DC000CF49203908601FE054B909EB0500CE490E
:102DD00041EA801040EA8560C9492039086013E063
:102DE000029884420AD109EB0600A0EB0800C7490B
:102DF00041EA8010C2492039086005E0C34941EA30
:102E00008910BF4920390860FFF7EFFD18B16FF056
:102E1000020001900DE00898FFF74CFE18B16FF02A
:102E20000200019005E0A7EB0907641C02988442A8
:102E300090D900BF0898FFF712FE464507D9B04861
:102E40001030D0F800B04FEA98004AF820B00020C7
:102E5000AB4920390860AA4914390860A849091FFC
:102E60000860019822E710B50446A948006880F878
:102E70002840012C03D10020FFF71CFD0AE0022CA2
:102E800008D1A34909680A68A1490968487900215D
:102E9000FFF782FD10BD10B504461C21204688F0C6
:102EA000DDFA04F1080006F01DFD10BD70B5044602
:102EB000254628461BF0DDFF70BD2DE9F84F04467E
:102EC0008846002714B1B8F1000F02D10020BDE8F8
:102ED000F88F45466A4600210846FFF73CFD9DF8FD
:102EE0000000A84201D9284601E09DF80000C0F387
:102EF0008F0A9DF80000A84201D9284601E09DF8FC
:102F0000000000F00309002636E0A06860B38048A6
:102F1000006890F82800D8B900272169491BA068EB
:102F2000405C47EA00672169491BA0680844407873
:102F300047EA00472169491BA0680844807847EAAE
:102F400000272169491BA0680844C07807430DE0A9
:102F50006F48006890F82800012807D12169A0680F
:102F60000844401B076801E04FF0FF37384606F081
:102F7000C4FC2D1F701CC6B25645C6DBB9F1000F4C
:102F80002AD00027002622E0A06828B12169491B29
:102F9000A06810F801B001E04FF0FF0B5C4800683A
:102FA00090F8280030B9C6F10300C1000BFA01F017
:102FB000074309E05648006890F82800012803D12B
:102FC000F1000BFA01F007436D1E701CC6B24E45AE
:102FD000DADB384606F091FCA8EB050077E72DE92F
:102FE000F84F044688464FF0000B14B1B8F1000FBB
:102FF00002D10020BDE8F88F4646002269461046FF
:10300000FFF7A9FC9DF80000C11700EB91714FEA92
:10301000A10A9DF80000C11700EB91718910A0EB87
:10302000810101F0FF0900273BE006F06DFC054639
:10303000E06838B33648006890F8280018BB284686
:10304000010600F47F4241EA022100F47F0241EAD6
:10305000122141EA10610D46D4E90312921B8D54EE
:10306000280AD4E90312921B11444870280CD4E9B1
:103070000312921B11448870280ED4E90312921B8C
:103080001144C8700AE02248006890F8280001281E
:1030900004D1D4E903010844801B0560361F781C65
:1030A000C7B25745C1DBB9F1000F36D006F02CFC92
:1030B0000546E06870B300271FE01548006890F8E7
:1030C000280038B9C7F10300C00025FA00F000F06D
:1030D000FF0B0AE00E48006890F82800012804D190
:1030E000F80025FA00F000F0FF0BD4E90301891B7A
:1030F00000F801B0761E781CC7B24F45DDDB0CE04E
:1031000020040140FD6D16800300380003003000EC
:1031100040000020FFE7A6EB0906A8EB060069E7E0
:1031200010B504460CB9002010BD04F1080006F0EB
:10313000DCFB08B10020F7E7A068F5E710B5F84818
:103140000068083006F0D1FB08B1002002E0F44826
:103150000068806804460CB9002010BD2046FFF7C7
:10316000DFFFEF49096808620120A0612046F4E70B
:103170002DE9F0410446EA480068807990B1E849B9
:1031800009684879FFF76EFBE54909680879FFF798
:10319000B3FBE34909680868FFF7C3FB0020E04977
:1031A000096888714FF6FF7000EAC4060027DD4801
:1031B00006F079FB0546DC480540F00040EAC750C0
:1031C00005432946D74806F06CFB00BF0020FFF7F7
:1031D00093FB00BFD34806F066FB054645F00105AA
:1031E0002946D04806F05DFB00BFBDE8F08170B510
:1031F000CB4800688469CA480068056A04B105B90B
:1032000070BDC7480068416A2846FFF7E8FE0646D9
:10321000C3480068416A881BC14909684862C048C0
:103220000068406A70BBBE490968086900211BF04C
:1032300007FE2846FEF7EEF8B94909688869FFF7E6
:103240006FFFB74909680862B5480068006A60B94D
:103250000120FFF751FB0220A0612046FEF7DAF8BB
:10326000FFF76CFFAE4909688861AD4909680869D4
:103270001BF0FFFDAA480068056A1DB1A84928692E
:1032800009684862A6480068416A2846FFF715FEAB
:10329000064616B13046FFF76BFFA069022802D13F
:1032A000D4E90410884700BFAAE708B543E09C4969
:1032B000096800230422486969461BF024FE05467C
:1032C000002D38D10098062833D2DFE800F0320311
:1032D0002C2D2E3192480068806900B12AE0904977
:1032E0000968086900211BF0ABFDFFF727FF8C4937
:1032F000096888618A49096808691BF0BAFD88482D
:103300000068046A04B915E08549206909684862C3
:1033100083480068416A2046FFF7CFFD06463046E5
:10332000FFF726FF06E005E004E0FFF760FF01E09D
:1033300000E000BF00BFBAE72DE9F04100BF7948C7
:10334000143006F0B0FA054600BF2C4625467548F5
:10335000143006F0A8FA0646E8B28643E8B20643FF
:1033600031467048143006F09CFA00BF00BF6D482B
:10337000103006F098FA0546E8B20746BC4304F060
:10338000010030B1664909680422486902211BF036
:10339000A4FD04F0020030B16149096804224869C3
:1033A00003211BF09AFD04F0400078B15C480068EE
:1033B00090F82800012802D1FFF719FF06E05849CC
:1033C00009680422486911461BF087FDBDE8F081B9
:1033D000FEB506460C461546514800684079B04295
:1033E0000BD14F4800680079A04206D14C480068D4
:1033F0000068A84201D10020FEBD36B1012E05D0E3
:10340000022E04D0032E07D102E000BF00BF00BF90
:1034100043480068467102E06FF00600ECE700BF29
:10342000012C03D014B14FF0FF30E5E73C480068B1
:1034300004716846FDF7F8FFB5F57A7F05D33B497F
:1034400000984843B5EB500F02D96FF00500D3E761
:103450003348006805603248006890F82800022868
:1034600006D12A4600213046FFF796FA0020C3E72E
:1034700001202B49096888710020BDE770B504461A
:103480002748006810B96FF0030070BD24B104F143
:10349000080006F02AFA10B14FF0FF30F5E7A068F7
:1034A000054606E0286910B94FF0FF30EDE72868BF
:1034B000054604F108008542F4D1194909680869F4
:1034C00000211BF0BDFC16480068083006F00DFA1C
:1034D00008B1012600E000260020A0612146104826
:1034E00000680830FDF78CFF0D49096808691BF07A
:1034F000C0FC012E06D10A4909680422486901214D
:103500001BF0EBFC0020C0E7F8B50446002168463C
:103510001BF077FC06465EB16FF00100F8BD0000BD
:1035200040000020000401400700788040420F0066
:1035300000986061FE4820612046FFF79FFF054626
:103540001DB9002100981BF07BFC00981BF069FC62
:103550000020606120612846E0E72DE9F04194B049
:1035600006460C4617461D4616B10CB107B125B9E3
:103570004FF0FF3014B0BDE8F081EE48006890F8DD
:103580002800022826D1B5F5FF5F01D8202C02D9EA
:103590004FF0FF30EEE7E7490968086900211BF0AA
:1035A0004FFC22463146E44887F030FFE3B2E24A5E
:1035B0002946E1482030FFF76AFB2A46DE492031E0
:1035C000384687F023FFDB49096808691BF051FC86
:1035D0000020CFE70DA8FFF75EFC302101A887F09F
:1035E0003DFF2CB10594039601A90FA8FDF708FF34
:1035F0002DB10B950A9707A90FA8FDF701FF0DA89C
:10360000FFF782FF80464046B4E72DE9F0438DB0D6
:1036100006460C4606B124B94FF0FF300DB0BDE8A8
:10362000F083C448006890F82800022859D14FF070
:1036300000084FF00009BF490968086900211BF024
:10364000FFFB042C2ED84FF48000BC49086000BF5B
:10365000BA48006800F480000028F9D1E004070CA3
:10366000B74840EAC709B548C0F80090FFF7BDF970
:10367000B248006840F00400B0490860AF483030FC
:10368000D0F80080002504E0E80028FA00F070552A
:103690006D1CA542F8D30020A8490860A7490C3149
:1036A000086017E0B4F5FF5F07D9A2490968086907
:1036B0001BF0DFFB4FF0FF30B0E700231A46214636
:1036C0009D482030FFF7E3FA22469B4920313046DF
:1036D00087F09CFE9749096808691BF0CAFB002027
:1036E0009CE7182107A887F0B9FE0A960B94684654
:1036F000FFF7D1FB07A902A8FDF782FE6846FFF796
:1037000003FF8BE72DE9F0438DB005460C4605B16C
:1037100024B94FF0FF300DB0BDE8F0838548006854
:1037200090F82800022857D100274FF0000981495E
:103730000968086900211BF083FB042C2DD84FF485
:1037400080007E49086000BF7C48006800F480006B
:103750000028F9D1002604E0A85DF1008840074365
:10376000761CA642F8D3754820300760E0044FEA83
:103770001048734840EAC8097048C0F80090FFF745
:1037800034F96E48006840F004006C49086000207D
:1037900008606A490C31086017E0B4F5FF5F07D98B
:1037A0006449096808691BF064FB4FF0FF30B2E719
:1037B000224629466048203087F028FE00231A461A
:1037C00021465D482030FFF78FF95A49096808699A
:1037D0001BF04FFB00209EE7182107A887F03EFE54
:1037E00009950B946846FFF756FB07A902A8FDF759
:1037F00007FE6846FFF788FE8DE72DE9F04194B09B
:1038000006460C4617461D4616B10CB107B125B940
:103810004FF0FF3014B0BDE8F0814648006890F8E2
:103820002800022825D1B5F5FF5F01D9C01EF1E7B8
:1038300040490968086900211BF002FB2246314615
:103840003D48203087F0E2FD3B49203160182A4690
:10385000394687F0DBFD611900231A4636482030CF
:10386000FFF742F93349096808691BF002FB0020A1
:10387000D0E70DA8FFF70FFB302101A887F0EEFD80
:103880002CB10594039601A90FA8FDF7B9FD2DB140
:103890000B95099707A90FA8FDF7B2FD0DA8FFF733
:1038A00033FE80464046B5E72DE9FF4121480068D8
:1038B00020B16FF0020004B0BDE8F0812C2006F0CA
:1038C00065FC044614B96FF00100F4E7012104F12E
:1038D00010001BF096FA05462DB1204606F087FC35
:1038E0006FF00100E7E7082104F114001BF0D0FAA3
:1038F000054645B120691BF094FA204606F077FC96
:103900006FF00100D7E7002013214FF400720D4B38
:10391000CDE90032CDE9021006480B4A0BA103683D
:1039200000201BF0D9F90546FDB1206912E0000026
:10393000AD2E01084000002000800320000401405B
:10394000030038005C450020AB320108686F7374D7
:10395000737069001BF065FA60691BF0AFFA2046CE
:1039600006F045FC6FF00100A5E7F9482060002053
:1039700020716071A07104F1080005F0B3FF002010
:10398000A061E06120626062F248046000BFF2481A
:1039900005F089FF064646F480063146EE4805F0FC
:1039A00080FF00BF0120FEF785FF0020FFF75BFAD4
:1039B000E84909684879FEF755FF0120FEF79CFFAA
:1039C0000127E54805F06FFF064617B146F00206ED
:1039D00001E026F002063146DF4805F062FF00BF35
:1039E000DC4909680868FEF79CFF0027DA480C30BC
:1039F00005F059FF064626F01C0646EA87063146C2
:103A0000D5480C3005F04DFF00BF0727D2480C30D9
:103A100005F049FF064626F4E07646EA8716314669
:103A2000CD480C3005F03DFF00BF0127CA4805F026
:103A30003AFF064617B926F4801605E0012F03D198
:103A400026F4801646F480163146C34805F029FF57
:103A500000BF0127C04805F026FF064617B926F427
:103A6000002605E0012F03D126F4002646F40026A7
:103A70003146B94805F015FF00BF4026B648103062
:103A800005F011FF0746B7433946B348103005F03B
:103A900008FF00BF1520FEF74EFA00200BE76FF07D
:103AA000040070472DE9F047064689464FF0000AAA
:103AB000102E05DBA6F11000C5B24FF4C06401E082
:103AC000354600241BF03DFA8246A449601805F0F3
:103AD000EAFE80460122AA4042EA08019F4AA01855
:103AE00005F0DFFE9D49091F601805F0DCFE074662
:103AF000B9F1000F09D00122AA4042EA0701974A12
:103B0000121FA01805F0CDFE08E00122AA4027EA06
:103B10000201924A121FA01805F0C3FE8F496018D7
:103B2000414605F0BEFE50461BF00FFABDE8F08797
:103B30002DE9F0410446162C01DB222C03DD2D2C4F
:103B400003DB2F2C01DCBDE8F081102C05DBA4F198
:103B50001000C6B24FF4C06501E0264600257F493B
:103B60000C31681805F09FFE0121B14020EA0107E1
:103B70007A490C316818394605F093FE7749091DDA
:103B8000681805F090FE0121B14020EA0107734951
:103B9000091D6818394605F084FE70490831681817
:103BA00005F081FE0121B14020EA01076B4908318F
:103BB0006818394605F075FE00BFC4E72DE9F041ED
:103BC0000446102C05DBA4F11000C6B24FF4C0650A
:103BD00001E02646002561490C31681805F063FEB6
:103BE0000121B14020EA01075C490C3168183946CF
:103BF00005F057FEBDE8F0812DE9F04104466CB1B7
:103C0000012C0BD0062C09D00D2C01DB0F2C05DD6F
:103C1000102C01DB122C01DD232C01DBBDE8F0812F
:103C2000102C05DBA4F11000C6B24FF4C06501E012
:103C30002646002549490C31681805F034FE01215B
:103C4000B14040EA010745490C316818394605F092
:103C500028FE42491031681805F025FE0121B140C7
:103C600040EA01073D4910316818394605F019FE50
:103C70003A491431681805F016FE0121B14040EAB6
:103C80000107364914316818394605F00AFE00BFAD
:103C9000C4E72DE9F0410446232C0AD0242C08D097
:103CA000272C06DA2CB1072C03D00D2C03DB0F2CAC
:103CB00001DCBDE8F081102C05DBA4F11000C6B2D8
:103CC0004FF4C06501E02646002524490C316818F0
:103CD00005F0E9FD0121B14040EA01071F490C311F
:103CE0006818394605F0DDFD1C491031681805F0EB
:103CF000DAFD0121B14040EA010718491031681886
:103D0000394605F0CEFD15491431681805F0CBFD94
:103D10000121B14020EA01071049143168183946E1
:103D200005F0BFFD00BFC4E72DE9F04105461D2D9C
:103D300003D02B2D01D02F2D01D1BDE8F081102D06
:103D40000EDBA5F11000C6B24FF4C0640AE000001B
:103D500080841E004000002000040140040C01404B
:103D60002E460024F849601805F09DFD0121B14060
:103D700040EA0107F4496018394605F092FDF2491E
:103D8000091D601805F08FFD0121B14020EA0107EF
:103D9000ED49091D6018394605F083FDEA490831EF
:103DA000601805F080FD0121B14040EA0107E649B5
:103DB00008316018394605F074FD00BFBDE72DE9F4
:103DC000F0410546292D03D02A2D01D02D2D01D1FA
:103DD000BDE8F081102D05DBA5F11000C6B24FF44F
:103DE000C06401E02E460024D749601805F05BFD51
:103DF0000121B14040EA0107D3496018394605F076
:103E000050FDD149091D601805F04DFD0121B1405B
:103E100020EA0107CC49091D6018394605F041FD2B
:103E2000C9490831601805F03EFD0121B14020EA82
:103E30000107C54908316018394605F032FD00BF59
:103E4000C6E770B505460C46012C03D12846FFF79E
:103E5000B6FF1CE0022C03D12846FFF765FF16E0F1
:103E6000032C03D12846FFF714FF10E0042C03D1E4
:103E70002846FFF7C1FE0AE0052C03D12846FFF7CC
:103E80009DFE04E0062C02D12846FFF751FE70BDCE
:103E90002DE9F047064688461746102E05DBA6F1A9
:103EA0001000C5B24FF4C06401E03546002405217E
:103EB0003046FFF7C6FFB8F1000F0FD1A24908390D
:103EC000601805F0F0FC0121A94040EA01099E4973
:103ED00008396018494605F0E4FC11E0B8F1010F1B
:103EE0000ED199490839601805F0DDFC0121A9407F
:103EF00020EA0109944908396018494605F0D1FCC7
:103F000077B99149091F601805F0CDFC0121A9403E
:103F100040EA01098C49091F6018494605F0C1FCB7
:103F2000012F01D0022F0ED18749091F601805F01B
:103F3000BAFC0121A94020EA01098349091F601840
:103F4000494605F0AEFCBDE8F08710B504460022F6
:103F500011461046FFF79CFF24B900210846FFF7E1
:103F6000A1FD05E0012C03D101210020FFF79AFDFE
:103F700010BD70B5044600250026744805F093FC7A
:103F8000064626F480363146704805F08AFC2068E3
:103F90000543606845EA0025208945EA0045207B05
:103FA00045EA006529466948001F05F07AFC0026AD
:103FB00020690643606946EA00263146634805F0F9
:103FC00070FC624805F06FFC064646F480363146C8
:103FD0005E4805F066FC70BD70B5044600250026FD
:103FE0005A48001F05F05FFC0546584805F05BFC89
:103FF0000646C6F30620606106F00F002061C5F397
:104000000460E060C5F30440A060C5F30520606073
:1040100005F03F00206070BD10B54C48001D05F054
:1040200042FC00F0200058B120214848001D05F056
:1040300038FC4748006818B1454A506811688847FD
:1040400010BD70B505460C4641480560446025200A
:10405000FDF771FF70BD70B50446002500262520D0
:10406000FDF769FF20680543606845EA002520895F
:1040700045EA0045207B45EA006520690643606902
:1040800046EA002646F48031304805F00AFC45F047
:1040900000412E48001F05F004FC70BD10B52B48F0
:1040A000001F05F000FC20F0004421462748001FB7
:1040B00005F0F7FB2520FDF765FF10BD10B525487D
:1040C000006810B123480068804710BD10B5044651
:1040D000204804602320FDF72EFF10BD70B5044674
:1040E0000D460026042C01DD701E70BD042C0BD182
:1040F000194805F0D8FB20F47F4646EA05263146EC
:10410000154805F0CEFB11E013481C3805F0CBFB39
:10411000E200FF21914020EA0106E10005FA01F0EA
:10412000064331460C481C3805F0BBFB0020DCE799
:104130002DE9F04704460F4690460025042C0DDD7E
:10414000681EBDE8F0870000100C0140100600401A
:10415000480000205000002030180140042C15D1E8
:10416000FB4805F0A0FB85B245EA07452946F8481B
:1041700005F097FBF64805F096FB20F47F4545EAED
:1041800008252946F24805F08CFB3BE0264604EB67
:10419000D6714910EE4A2C3A02EB810005F083FB00
:1041A000A14604EBD9714910A4EB41010A014FF675
:1041B000FF71914020EA0105204604EBD0714910BF
:1041C000A4EB41010A0107FA02F10D4304EBD67199
:1041D0004910DF4A2C3A02EB8100294605F061FBC9
:1041E000DB48203805F05FFBE200FF21914020EA28
:1041F0000105E10008FA01F005432946D4482038BA
:1042000005F04FFB00209CE72DE9F04104460D46E8
:10421000042C03DD4FF0FF30BDE8F0817DB9CC48C0
:10422000001F05F040FB04F10B0101228A4040EA27
:1042300002063146C648001F05F033FBD5E0012DCC
:1042400019D10CB1A81EE7E7C148001F05F02BFBF0
:1042500020F478463146BE48001F05F022FBBC48DA
:10426000243805F020FB40F040063146B848243899
:1042700005F017FBB9E0022D30D11CB1022C01D0A2
:10428000E81EC9E7B248001F05F00DFB4FF4C0510E
:10429000A14020EA01063146AD48001F05F001FBB0
:1042A000AB48243805F0FFFA20F040063146A84814
:1042B000243805F0F6FAA648243805F0F4FA264624
:1042C00004EBD67149100E3101228A4040EA020700
:1042D00039469F48243805F0E4FA86E0032D40D1A2
:1042E0001CB1022C01D0281F96E79948001F05F049
:1042F000DAFA4FF4C051A14020EA01063146944851
:10430000001F05F0CEFA9248243805F0CCFA20F0D0
:10431000400631468E48243805F0C3FA8C482438CC
:1043200005F0C1FA264604EBD67149100E31012280
:104330008A4020EA020739468548243805F0B1FA58
:104340008348243805F0AFFA04EBD67149100122F6
:104350008A4040EA020739467D48243805F0A1FA30
:1043600043E0042D3ED17A48243805F09CFA20F031
:10437000400631467648243805F093FA042C21D0C3
:104380007348243805F08FFA264604EBD67149109D
:1043900001228A4020EA020739466D48243805F098
:1043A00080FA6B48243805F07EFA04EBD671491088
:1043B0000E3101228A4020EA020739466448243837
:1043C00005F06FFA6248001F05F06DFA04F10B0169
:1043D00001228A4020EA020631465D48001F05F0AE
:1043E00060FA02E04FF0FF3016E7002014E770B5E6
:1043F00004460D46042C02DD4FF0FF3070BD042C46
:1044000048D1ADB95248001D05F04DFA20F0100614
:1044100031464F48001D05F044FA4D48001D05F097
:1044200042FA20F0080631464948001D05F039FAE5
:10443000012D16D14648001D05F035FA20F0100672
:1044400031464348001D05F02CFA4148001D05F097
:104450002AFA40F0080631463D48001D05F021FAD1
:104460007BE0022D79D13A48001D05F01CFA40F09E
:10447000100631463648001D05F013FA3448001D79
:1044800005F011FA20F0080631463148001D05F00C
:1044900008FA62E0B5B9ACB92D48243805F003FA42
:1044A00020F4003631462A48243805F0FAF9284825
:1044B000243805F0F8F920F48036314624482438B1
:1044C00005F0EFF9012D20D12148243805F0EBF952
:1044D000112101EB44020121914020EA01063146FD
:1044E0001B48243805F0DDF91948243805F0DBF9BC
:1044F000102101EB44020121914040EA01063146BE
:104500001348243805F0CDF927E0022D22D11048B8
:10451000243805F0C8F9112101EB44020121914032
:1045200040EA010631460A48243805F0BAF908483D
:10453000243805F0B8F9102101EB44020121914023
:1045400020EA010631460248243805F0AAF904E0C1
:104550002C1801404FF0FF3050E700204EE770B5B7
:1045600004460D46042C02DD4FF0FF3070BD042CD4
:1045700015D1012D09D1F74805F095F940F0020653
:104580003146F44805F08DF92AE0F24805F08BF940
:1045900020F002063146EF4805F083F920E0012DB6
:1045A0000FD1EC48283805F07EF904F1080101220A
:1045B0008A4040EA02063146E648283805F071F99B
:1045C0000EE0E448283805F06EF904F108010122F4
:1045D0008A4020EA02063146DE48283805F061F9B3
:1045E0000020C3E770B504460D46042C02DD4FF0F1
:1045F000FF3070BD042C15D1012D09D1D54805F02F
:1046000052F940F001063146D24805F04AF928E057
:10461000D04805F048F920F001063146CD4805F0B4
:1046200040F91EE0012D0ED1CA48283805F03BF9AB
:10463000A11C01228A4040EA02063146C5482838BA
:1046400005F02FF90DE0C348283805F02CF9A11C1E
:1046500001228A4020EA02063146BE48283805F089
:1046600020F90020C5E770B504460D460026042C4D
:1046700001DD701E70BD042C0CD1B648001F05F082
:1046800012F920F0FF062E433146B248001F05F014
:1046900008F911E0AF48203805F005F9E200FF21E4
:1046A000914020EA0106E10005FA01F00643314697
:1046B000A848203805F0F5F80020DBE770B504467F
:1046C0000D4624B1042C02D04FF0FF3070BD042CF5
:1046D00019D1012D0BD19F48083005F0E4F820F0E6
:1046E000040631469B48083005F0DBF824E0994881
:1046F000083005F0D8F840F00406314695480830F7
:1047000005F0CFF818E0012D0BD19248283805F0BC
:10471000CAF820F4805631468E48283805F0C1F892
:104720000AE08C48283805F0BEF840F4805631463F
:104730008848283805F0B5F80020C7E72DE9F0478C
:104740000446884616461F4600250CB1022C01D1AE
:10475000032E03DD4FF0FF30BDE8F087B8F1010F05
:1047600044D17C48183805F09EF820F4403545EADD
:10477000064529467748183805F093F80CB1012C06
:1047800017D17448183805F08EF820F0FF053D4326
:1047900029467048183805F084F86E48283805F026
:1047A00082F840F4801949466A48183805F079F8CB
:1047B0003AE0022C01D0032C36D16648183805F0B7
:1047C00072F820F47F4545EA0725294661481838E4
:1047D00005F067F85F48283805F065F840F40019DF
:1047E00049465C48183805F05CF81DE00CB1012C16
:1047F0000BD15848283805F056F820F4801949465E
:104800005448183805F04DF80EE0022C01D0032C66
:104810000AD15048283805F046F820F400194946D6
:104820004C48183805F03DF8002095E770B504466F
:104830000D4624B1042C02D04FF0FF3070BDCCB92E
:10484000012D0BD14348283805F02DF840F00076B3
:1048500031464048283805F024F824E03D482838FF
:1048600005F021F820F0007631463A48283805F066
:1048700018F818E0012D0BD13648083005F013F870
:1048800040F0010631463348083005F00AF80AE0E6
:104890003048083005F007F820F0010631462D4871
:1048A000083004F0FEFF0020C8E72DE9F04104467F
:1048B0000D461646042C03DD4FF0FF30BDE8F081B5
:1048C000012D2DD176B92348083804F0ECFFE11C06
:1048D00001228A4040EA020739461E48083804F09F
:1048E000E0FF0DE01B48083804F0DDFFE11C012269
:1048F0008A4020EA020739461648083804F0D1FFFA
:104900001448083804F0CFFF04F10B0101228A405B
:1049100040EA020739460F48083804F0C2FF0EE0AB
:104920000C48083804F0BFFF04F10B0101228A4053
:1049300020EA020739460748083804F0B2FF002091
:10494000BCE770B504463CB1042C05D04FF0FF30F5
:1049500070BD0000301801404CB9F94804F0A3FFC5
:1049600040F080752946F64804F09BFF0AE0F448C1
:10497000303004F098FF40F002052946F04830300E
:1049800004F08FFF0020E3E770B504460D46042CC9
:1049900002DD4FF0FF3070BD042C18D15DB1E84846
:1049A000143004F080FF40F010063146E448143023
:1049B00004F077FF27E0E248143004F074FF20F0A1
:1049C00010063146DE48143004F06BFF1BE06DB179
:1049D000DB48143004F067FF0121A14040EA0106E2
:1049E0003146D748143004F05CFF0CE0D448143052
:1049F00004F059FF0121A14020EA01063146D048C8
:104A0000143004F04EFF0020C5E770B505460C4693
:104A100025B1042D02D04FF0FF3070BD002D7CD1A8
:104A2000022C21D1C648143004F03DFF40F020068E
:104A30003146C348143004F034FFC148143004F048
:104A400032FF40F040063146BD48143004F029FFE3
:104A5000BB48143004F027FF20F080063146B848E8
:104A6000143004F01EFFFCE00CBBB548143004F019
:104A70001AFF40F020063146B148143004F011FF0F
:104A8000AF48143004F00FFF20F040063146AC4828
:104A9000143004F006FFAA48143004F004FF20F09C
:104AA00080063146A648143004F0FBFED9E0012C04
:104AB00021D1A348143004F0F6FE40F04006314600
:104AC0009F48143004F0EDFE9D48143004F0EBFED6
:104AD00020F0200631469A48143004F0E2FE98484F
:104AE000143004F0E0FE20F0800631469448143083
:104AF00004F0D7FEB5E0032CB5D19148143004F092
:104B0000D2FE40F0800631468D48143004F0C9FED4
:104B10008B48143004F0C7FE00E012E020F02006BD
:104B200031468748143004F0BCFE8548143004F048
:104B3000BAFE20F0400631468148143004F0B1FE40
:104B40008FE0042D22D1022C21D17D48303004F099
:104B5000AAFE40F4807631467948303004F0A1FE58
:104B60007748303004F09FFE40F4007631467448B8
:104B7000303004F096FE7248303004F094FE20F499
:104B8000806631466E48303004F08BFE69E00CBB25
:104B90006B48303004F087FE40F480763146684838
:104BA000303004F07EFE6648303004F07CFE20F4A5
:104BB000007631466248303004F073FE6048303091
:104BC00004F071FE20F4806631465D48303004F018
:104BD00068FE46E0012C21D15948303004F063FED4
:104BE00040F4007631465648303004F05AFE5448BE
:104BF000303004F058FE20F4807631465048303092
:104C000004F04FFE4E48303004F04DFE20F4806634
:104C100031464B48303004F044FE22E0032C20D1D2
:104C20004748303004F03FFE40F480663146444847
:104C3000303004F036FE4248303004F034FE20F4C8
:104C4000807631463E48303004F02BFE3C48303010
:104C500004F029FE20F4007631463948303004F063
:104C600020FE0020D9E67FB500249DF8010004282D
:104C700002DD601E04B070BD9DF800109DF80100BB
:104C8000FFF7C2FA044614B14FF0FF30F2E79DF887
:104C9000000003280ED19DF808309DF807209DF8EC
:104CA00006109DF80100FFF749FD044614B14FF0CE
:104CB000FF30DFE79DF809109DF80100FFF797FB33
:104CC0009DF80420BDF802109DF80100FFF730FAAE
:104CD0009DF805109DF80100FFF700FA9DF80A10F5
:104CE0009DF80100FFF73BFC9DF80B109DF80100BB
:104CF000FFF778FC9DF80C109DF80100FFF7B3FC5E
:104D00009DF80D109DF80100FFF73EFE9DF8010093
:104D100018B19DF80100042804D19DF8010001217B
:104D2000FFF7CCFC9DF80000012806D19DF801009A
:104D300018B901210420FFF7C1FC00209AE7000008
:104D4000081801402DE9F04104460F4615461E465D
:104D50002CB1042C03D04FF0FF30BDE8F081FF22CE
:104D600039462046FFF7E4F929462046FFF75EFD65
:104D70002046FFF7E6FD00212046FFF738FB1CB96F
:104D800000212046FFF79AFC01212046FFF7E7FBB0
:104D900031462046FFF739FE0020DEE770B50446B5
:104DA000042C02DD4FF0FF3070BDFA4804F07BFDAB
:104DB00004F11B0101228A4040EA02052946F54818
:104DC00004F06FFD0020EFE770B50446042C02DD0F
:104DD0004FF0FF3070BDEF4804F065FD04F11B019A
:104DE00001228A4020EA02052946EA4804F059FDDA
:104DF0000020EFE7FEB504460D460026042C00DD3A
:104E0000FEBD6846FCF710FBE34900984843000AE2
:104E1000B0FBF5F086B22046FFF7D6FFFF22314601
:104E20002046FFF785F92046FFF7B8FF00BFE7E708
:104E300070B504460D46042C00DD70BD29462046A1
:104E4000FFF74CF900BFF8E72DE9F04188B00446C0
:104E50000D4616461F4600BF01A8FCF7E5FA0020E4
:104E60000490059006900790FF208DF81400012013
:104E70008DF819008DF81A0004208DF8100000201C
:104E80008DF81B008DF81C708DF81D008DF81560D5
:104E90008DF81140C04901984843000AB0FBF5F075
:104EA00080B2ADF8120004A80FC8FFF7DCFE804600
:104EB000404608B0BDE8F081704710B50020B74902
:104EC00008700021B64804F0ECFC0021B448F4302E
:104ED00004F0E7FC4FF0FF31B148083004F0E1FC8A
:104EE00010BD70B504460D461646AE4850F8240075
:104EF00028B90C2005F04AF9AA4941F82400A9482C
:104F000050F8240060B1A74850F824000560A54877
:104F100050F8240046600020A24951F8241088600F
:104F200070BD70B59E480C3804F0BDFC05460024E9
:104F30009A480078401C9949087000BF16E001208B
:104F4000A040284088B1974A52F824205068954ADA
:104F500052F8242011688847924850F8240080684D
:104F6000401C904951F824108860641C292CE6DB11
:104F70008A480078401E89490870002188482430FA
:104F800004F08FFC70BD3EB5044600BF86488442E5
:104F900001D2044603E08548844200D904466846AD
:104FA000FCF742FA7C490098484304EB8401B0FBCB
:104FB000F1F0451EE9B27E4804F073FCC5F3072109
:104FC0007B48001D04F06DFCC0217948083004F0D6
:104FD00068FC1320FCF7AFFF3EBD10B540217448BC
:104FE000103004F05EFC00BF7148103004F05BFC30
:104FF00000F002000028F7D110BD70B5002500BFF9
:105000006B48103004F04FFC00F002000028F7D18C
:105010006748103004F047FC044611E0681C85B274
:10502000B5F5007F07DD63A087F00AFDFFF7D5FF28
:105030004FF0FF3070BD5E48103004F034FC044681
:1050400004F080000028E9D100BFF3E770B5044602
:105050000D46214656480C3004F023FC2DB190211A
:105060005348103004F01DFC04E01021504810306B
:1050700004F017FC00BF4E48103004F014FC00F0A0
:1050800002000028F7D170BD2DE9F04105460E461B
:1050900020240DB944F008040EB144F04004214628
:1050A0004348103004F0FDFB00BF4148103004F0CD
:1050B000FAFB00F002000028F7D13D480C3004F064
:1050C000F2FBC7B23846BDE8F08130B5044612B9EC
:1050D0004FF0FF3030BD3648C4603A48447000207D
:1050E000384DA87080202873284642600381002034
:1050F00068812846017090202D4D28610020E9E745
:1051000030B5044612B94FF0FF3030BD2848C460B6
:105110002C48447000202B4DA8702873284642600C
:10512000038100206881284601709020204D28616D
:105130000020EAE723490861704710B51C4804695C
:1051400001201B49086104F0200010B11EA087F067
:1051500077FC04F0010000287ED004F080000028D5
:105160007BD118488078062839D2DFE800F003396F
:10517000455C6393134800780D49C86010200861AE
:105180001048007B00F08000802825D102200D49C6
:10519000887024E00818014040420F0054000020AD
:1051A0000CF0FFFF5C470020A0860100801A06007B
:1051B00000000140776169742061636B2065727241
:1051C0000A0000000048002049324320414C206C76
:1051D0006F73740D0A0000000120FE49887065E0BD
:1051E000FC48407840F00100FB49C860902008610D
:1051F0000320F849887059E0F64841894089401CED
:10520000F44A508110464068405CF349C860102061
:1052100008611046408911460989884202D105205B
:105220001146887042E00420EA4988702020EA494B
:1052300008613BE0E848C068C1B2E648428940895D
:10524000401CE44B588118464068815418464189F7
:105250000089401E814201E040E028E006D168203C
:10526000DD49086105201946887012E0D948008997
:1052700001280BD16820D84908610620D5498870DB
:105280000846006928B10869804702E02020D24919
:1052900008610BE04020D04908610620CD498870A4
:1052A0000846006908B10869804700BF16E0C94890
:1052B0008078052812D1C748007B80280ED0C648C8
:1052C000C068C4494968C34A528988540620C14904
:1052D00088700846006908B10869804710BD10B59C
:1052E0000246BE485061002119E003290ADA4FF056
:1052F0000043036040F277134B43B94C04EB830344
:10530000436002E0002303604360022902D1B34BF3
:10531000836002E000F10C0383600C30491C032918
:10532000E3DB10BD10B50246AD48303810610021F6
:1053300017E000230360436040F277134B43A94C0E
:1053400004EB830383600024C4600461012903D15A
:10535000A34B303B436102E000F118034361183076
:10536000491C0229E5DB10BD10B504464FF0004092
:10537000206001219C4804F094FA10BD70B50446E9
:10538000656909E0A06810B16868A1688847284687
:10539000FFF7EAFFAD686561286800F0004000286B
:1053A000F0D0002070BD10B5904CE06820B12269AB
:1053B00002F10800E168884701218B48183804F0A1
:1053C00070FA10BD10B5894C207818B12046FFF74F
:1053D000D5FF05E0A06818B162695068A1688847E8
:1053E00002218148183804F05CFA10BD10B57F4CDA
:1053F000606810B17E4861688847207820B101213B
:1054000079480C3804F04DFA08217748183804F030
:1054100048FA10BD10B577A087F012FB10BD10B58B
:105420000121794804F03DFA00217748001D04F07D
:1054300038FA00217448083004F033FA0321724826
:105440000C3004F02EFA03216F48103004F029FAD2
:1054500010BD10B56D496148243004F022FA40F2C5
:1054600022415E48283004F01CFA69495B482C3020
:1054700004F017FA67495948303004F012FAFF2156
:105480005648343004F00DFA60495948803804F029
:1054900008FA614956487C3804F003FA112154484F
:1054A000783804F0FEF94FF000715148743804F078
:1054B000F8F95A494E48703804F0F3F958494C4805
:1054C0006C3804F0EEF957494948683804F0E9F9B6
:1054D00040F201114648643804F0E3F900214448E1
:1054E000603804F0DEF9002141485C3804F0D9F955
:1054F00000213F48583804F0D4F900213C48543882
:1055000004F0CFF9FF213A48503804F0CAF910BD31
:1055100010B5FFF79EFF4449444804F0C2F94449DE
:105520004248001D04F0BDF940481C3004F0BBF9AE
:105530000446200B000300F232213C481C3004F0EA
:10554000B0F940F2FD213948203004F0AAF910BD2D
:1055500010B5264C1821204685F080FF2046FFF725
:10556000BEFE2046FFF7DEFE0120FCF7E4FC002033
:10557000FCF7E1FC0320FCF7DEFC1620FCF7DBFC6B
:1055800016491948001F04F08CF901211648083803
:1055900004F087F90121144804F083F910493039E7
:1055A00011480C3004F07DF901210F48083004F057
:1055B00078F90F490C48183004F073F94FF48071F2
:1055C00009481C3004F06DF9012107480C3804F03B
:1055D00068F92FE000480020000001407CBD032056
:1055E000E8AB032000A0032018030040144800206B
:1055F000A0BE0320737069204853206972716861EE
:105600006E646C650A0000000002004021020C007C
:105610000832200496024753222A010100030008A1
:105620000080FF00080A0F01A0AD03200800004021
:10563000209E03200021F74804F033F9002010BD1C
:1056400010B50446022C02D1FFF7E9FE03E0032C5B
:1056500001D1FFF75DFF10BD0146EF48017019B1A0
:10566000002242608260C2607047EB494860704728
:10567000E94988607047E849C86070472DE9F04102
:1056800007460D462E462FB1002D03DD40F6B830FB
:10569000854205DDE1A087F0D3F90020BDE8F08167
:1056A000DD48046907E0206800F0004000B903E02D
:1056B000012019F0BEFCF6E700BF1EE040F2DC500E
:1056C000864200DD00E03046804642463946A0680A
:1056D00085F09CFE4FEA083060604FF0004020608B
:1056E0000121CC48243004F0DCF86469CA48046124
:1056F000A6EB0806002E00DC04E0206800F0004065
:105700000028DBD000BFA81BC8E770B50024002527
:105710000026C84804F0C7F8064600BF07E001208D
:10572000A040304008B1012503E0601CC4B20F2C3A
:10573000F5DD00BF5DB1C04850F8340038B1BE4A55
:1057400002EBC4025068BC4A52F83410884770BD5E
:1057500070B5002400250026B84804F0A4F80646D9
:1057600010240AE0A4F11000012101FA00F03040F9
:1057700008B1012503E0601CC4B22F2CF2DD00BF8C
:105780005DB1AD4850F8340038B1AB4A02EBC40209
:105790005068A94A52F83410884770BD2DE9F0418D
:1057A0000546102D05DBA5F11000C6B24FF4C0640C
:1057B00001E02E4600249F493039601804F073F848
:1057C00007460122B24042EA07019A4A303AA0183D
:1057D00004F067F897493439601804F064F880469B
:1057E000944930396018394604F05BF80120B04024
:1057F00000EA080010B10120BDE8F0810020FBE7BD
:105800002DE9F04707468846102F07DBA7F1100067
:10581000C5B24FF4C0644FF0280903E03D460024B0
:105820004FF01909B8F1050F31D2DFE808F0033164
:105830005F7E9D007F491439601804F034F80646F5
:105840000120A84086437B4914396018314604F092
:1058500028F878491039601804F025F80646012028
:10586000A8408643734910396018314604F019F88E
:1058700070490C39601804F016F806460120A8405B
:1058800006436C490C396018314604F00AF88AE086
:1058900068491439601804F006F806460120A8404B
:1058A0008643644914396018314603F0FAFF6149B0
:1058B0001039601803F0F7FF06460120A840864320
:1058C0005C4910396018314603F0EBFF59490C3937
:1058D000601803F0E8FF06460120A84086435549BA
:1058E0000C396018314603F0DCFF5CE05149143993
:1058F000601803F0D8FF06460122AA4026EA0201FA
:105900004C4A143AA01803F0CCFF4A4910396018E9
:1059100003F0C9FF06460122AA4042EA0601454AB1
:10592000103AA01803F0BDFF3DE042491439601859
:1059300003F0B9FF06460122AA4042EA06013D4AA9
:10594000143AA01803F0ADFF3A490C39601803F07F
:10595000AAFF06460122AA4042EA0601354A0C3A4D
:10596000A01803F09EFF1EE032491439601803F0BE
:105970009AFF06460122AA4042EA06012D4A143A3D
:10598000A01803F08EFF2B490C39601803F08BFF31
:1059900006460122AA4026EA0201264A0C3AA0182D
:1059A00003F07FFF00BF00BF22490839601803F0F1
:1059B0007AFF06460120A84006431E4908396018B0
:1059C000314603F06EFF4846FCF7B5FABDE8F087B4
:1059D0002DE9F0410446102C05DBA4F11000C6B2FD
:1059E0004FF4C06501E026460025124908396818C1
:1059F00003F059FF07460122B24027EA02010D4A8F
:105A0000083AA81803F04DFF1920FCF7BBFABDE8CF
:105A1000F081000004030040144800200A687370FD
:105A20006920747820706172616D206572726F7286
:105A30000A000000340C01402C48002034120140C0
:105A40002DE9F0410446102C05DBA4F11000C6B28C
:105A50004FF4C06701E026460027FE49781803F09E
:105A600022FF05460120B040284010B10120BDE8CA
:105A7000F0810020FBE72DE9F0410446102C05DB06
:105A8000A4F11000C6B24FF4C06501E0264600251F
:105A9000F0490831681803F006FF07460122B240BA
:105AA00042EA0701EB4A0832A81803F0FAFEBDE803
:105AB000F081E94B43F8301003EBC0035A607047A4
:105AC0000620E6490860C803486070472DE9F047A2
:105AD00006460F4615461C464FF00009C846B4F569
:105AE000807F01D94FF48074DFF87493A04607E0FB
:105AF0002868C9F8000009F104092D1DA8F104085F
:105B0000B8F1000FF4D1FFF7DBFF601E46EA00405A
:105B1000D2490860C7F31300C90341EA0020CF4906
:105B200048600020BDE8F08770B505460C46FFF7D9
:105B3000C7FFCA480560C4F313004FF0805141EA23
:105B40000020C6494860002070BD2DE9F04105469F
:105B50000E4600274FEA930C03F00301581E45EA56
:105B60000040DFF8F882C8F80000C6F313004FF0D9
:105B7000805848EA0020DFF8E482C8F80400B84CF6
:105B800000BF04E020681060121D241D7F1C6745C3
:105B9000F8DB002909DD20681060D21C03E000203A
:105BA0001070521E491E0029F9D10020BDE8F08175
:105BB000AC48AA490860C8034860A9480068C0B258
:105BC00070472DE9F04F87B006460F4691461D46B7
:105BD0004FF0000AD34600200690059003900290F3
